{
  "contractName": "Bytrade_Staking",
  "abi": [
    {
      "inputs": [
        {
          "internalType": "address",
          "name": "_tokenAddress",
          "type": "address"
        }
      ],
      "stateMutability": "nonpayable",
      "type": "constructor"
    },
    {
      "anonymous": false,
      "inputs": [
        {
          "indexed": false,
          "internalType": "address",
          "name": "userAddress",
          "type": "address"
        },
        {
          "indexed": false,
          "internalType": "address",
          "name": "tokenAddress",
          "type": "address"
        },
        {
          "indexed": false,
          "internalType": "uint256",
          "name": "amount",
          "type": "uint256"
        }
      ],
      "name": "Stake",
      "type": "event"
    },
    {
      "anonymous": false,
      "inputs": [
        {
          "indexed": false,
          "internalType": "address",
          "name": "userAddress",
          "type": "address"
        },
        {
          "indexed": false,
          "internalType": "address",
          "name": "tokenAddress",
          "type": "address"
        },
        {
          "indexed": false,
          "internalType": "uint256",
          "name": "amount",
          "type": "uint256"
        }
      ],
      "name": "Unstake",
      "type": "event"
    },
    {
      "inputs": [],
      "name": "Token",
      "outputs": [
        {
          "internalType": "address",
          "name": "",
          "type": "address"
        }
      ],
      "stateMutability": "view",
      "type": "function",
      "constant": true
    },
    {
      "inputs": [],
      "name": "interestSent",
      "outputs": [
        {
          "internalType": "uint256",
          "name": "",
          "type": "uint256"
        }
      ],
      "stateMutability": "view",
      "type": "function",
      "constant": true
    },
    {
      "inputs": [],
      "name": "stakedInterest",
      "outputs": [
        {
          "internalType": "uint256",
          "name": "",
          "type": "uint256"
        }
      ],
      "stateMutability": "view",
      "type": "function",
      "constant": true
    },
    {
      "inputs": [],
      "name": "totalSent",
      "outputs": [
        {
          "internalType": "uint256",
          "name": "",
          "type": "uint256"
        }
      ],
      "stateMutability": "view",
      "type": "function",
      "constant": true
    },
    {
      "inputs": [],
      "name": "totalStaked",
      "outputs": [
        {
          "internalType": "uint256",
          "name": "",
          "type": "uint256"
        }
      ],
      "stateMutability": "view",
      "type": "function",
      "constant": true
    },
    {
      "inputs": [
        {
          "internalType": "address",
          "name": "",
          "type": "address"
        },
        {
          "internalType": "uint256",
          "name": "",
          "type": "uint256"
        }
      ],
      "name": "userDeposits",
      "outputs": [
        {
          "internalType": "uint256",
          "name": "amount",
          "type": "uint256"
        },
        {
          "internalType": "uint256",
          "name": "interestAmount",
          "type": "uint256"
        },
        {
          "internalType": "uint256",
          "name": "endTime",
          "type": "uint256"
        },
        {
          "internalType": "uint256",
          "name": "depositTime",
          "type": "uint256"
        }
      ],
      "stateMutability": "view",
      "type": "function",
      "constant": true
    },
    {
      "inputs": [
        {
          "internalType": "uint256",
          "name": "_tenure",
          "type": "uint256"
        },
        {
          "internalType": "uint256",
          "name": "_amount",
          "type": "uint256"
        }
      ],
      "name": "stake",
      "outputs": [],
      "stateMutability": "payable",
      "type": "function",
      "payable": true
    },
    {
      "inputs": [
        {
          "internalType": "uint256",
          "name": "_index",
          "type": "uint256"
        }
      ],
      "name": "unstake",
      "outputs": [],
      "stateMutability": "nonpayable",
      "type": "function"
    },
    {
      "inputs": [
        {
          "internalType": "address",
          "name": "userAddress",
          "type": "address"
        }
      ],
      "name": "getUserDeposits",
      "outputs": [
        {
          "components": [
            {
              "internalType": "uint256",
              "name": "amount",
              "type": "uint256"
            },
            {
              "internalType": "uint256",
              "name": "interestAmount",
              "type": "uint256"
            },
            {
              "internalType": "uint256",
              "name": "endTime",
              "type": "uint256"
            },
            {
              "internalType": "uint256",
              "name": "depositTime",
              "type": "uint256"
            }
          ],
          "internalType": "struct Bytrade_Staking.userDeposit[]",
          "name": "",
          "type": "tuple[]"
        }
      ],
      "stateMutability": "view",
      "type": "function",
      "constant": true
    }
  ],
  "bytecode": "0x60806040526040518060a0016040528062e4e1c067ffffffffffffffff168152602001630393870067ffffffffffffffff1681526020016308f0d18067ffffffffffffffff1681526020016317d7840067ffffffffffffffff1681526020016347868c0067ffffffffffffffff16815250600660008201518160000160006101000a81548167ffffffffffffffff021916908367ffffffffffffffff16021790555060208201518160000160086101000a81548167ffffffffffffffff021916908367ffffffffffffffff16021790555060408201518160000160106101000a81548167ffffffffffffffff021916908367ffffffffffffffff16021790555060608201518160000160186101000a81548167ffffffffffffffff021916908367ffffffffffffffff16021790555060808201518160010160006101000a81548167ffffffffffffffff021916908367ffffffffffffffff16021790555050503480156200016c57600080fd5b5060405162001ce138038062001ce18339818101604052810190620001929190620001f0565b806000806101000a81548173ffffffffffffffffffffffffffffffffffffffff021916908373ffffffffffffffffffffffffffffffffffffffff160217905550506200026a565b600081519050620001ea8162000250565b92915050565b6000602082840312156200020357600080fd5b60006200021384828501620001d9565b91505092915050565b6000620002298262000230565b9050919050565b600073ffffffffffffffffffffffffffffffffffffffff82169050919050565b6200025b816200021c565b81146200026757600080fd5b50565b611a67806200027a6000396000f3fe6080604052600436106100865760003560e01c806346f990631161005957806346f990631461015c5780637b0472f014610187578063817b1cd2146101a3578063856a7f4a146101ce578063c2412676146101f957610086565b806308f433331461008b5780632a5bf6d2146100cb5780632e17de781461010857806335f7f42414610131575b600080fd5b34801561009757600080fd5b506100b260048036038101906100ad919061114d565b610224565b6040516100c294939291906115c5565b60405180910390f35b3480156100d757600080fd5b506100f260048036038101906100ed9190611124565b610271565b6040516100ff91906114a8565b60405180910390f35b34801561011457600080fd5b5061012f600480360381019061012a91906111b2565b610337565b005b34801561013d57600080fd5b506101466108a7565b60405161015391906115aa565b60405180910390f35b34801561016857600080fd5b506101716108ad565b60405161017e91906115aa565b60405180910390f35b6101a1600480360381019061019c9190611204565b6108b3565b005b3480156101af57600080fd5b506101b8610ced565b6040516101c591906115aa565b60405180910390f35b3480156101da57600080fd5b506101e3610cf3565b6040516101f091906115aa565b60405180910390f35b34801561020557600080fd5b5061020e610cf9565b60405161021b919061142d565b60405180910390f35b6001602052816000526040600020818154811061024057600080fd5b9060005260206000209060040201600091509150508060000154908060010154908060020154908060030154905084565b6060600160008373ffffffffffffffffffffffffffffffffffffffff1673ffffffffffffffffffffffffffffffffffffffff168152602001908152602001600020805480602002602001604051908101604052809291908181526020016000905b8282101561032c5783829060005260206000209060040201604051806080016040529081600082015481526020016001820154815260200160028201548152602001600382015481525050815260200190600101906102d2565b505050509050919050565b6000600160003373ffffffffffffffffffffffffffffffffffffffff1673ffffffffffffffffffffffffffffffffffffffff16815260200190815260200160002082815481106103b0577f4e487b7100000000000000000000000000000000000000000000000000000000600052603260045260246000fd5b90600052602060002090600402016000015411610402576040517f08c379a00000000000000000000000000000000000000000000000000000000081526004016103f9906114ca565b60405180910390fd5b42600160003373ffffffffffffffffffffffffffffffffffffffff1673ffffffffffffffffffffffffffffffffffffffff168152602001908152602001600020828154811061047a577f4e487b7100000000000000000000000000000000000000000000000000000000600052603260045260246000fd5b906000526020600020906004020160020154106104cc576040517f08c379a00000000000000000000000000000000000000000000000000000000081526004016104c39061158a565b60405180910390fd5b6000600160003373ffffffffffffffffffffffffffffffffffffffff1673ffffffffffffffffffffffffffffffffffffffff1681526020019081526020016000208281548110610545577f4e487b7100000000000000000000000000000000000000000000000000000000600052603260045260246000fd5b906000526020600020906004020160010154600160003373ffffffffffffffffffffffffffffffffffffffff1673ffffffffffffffffffffffffffffffffffffffff16815260200190815260200160002083815481106105ce577f4e487b7100000000000000000000000000000000000000000000000000000000600052603260045260246000fd5b9060005260206000209060040201600001546105ea9190611654565b905060008060009054906101000a900473ffffffffffffffffffffffffffffffffffffffff1673ffffffffffffffffffffffffffffffffffffffff1663a9059cbb33846040518363ffffffff1660e01b815260040161064a92919061147f565b602060405180830381600087803b15801561066457600080fd5b505af1158015610678573d6000803e3d6000fd5b505050506040513d601f19601f8201168201806040525081019061069c9190611189565b905060011515811515146106e5576040517f08c379a00000000000000000000000000000000000000000000000000000000081526004016106dc9061154a565b60405180910390fd5b81600360008282546106f79190611654565b92505081905550600160003373ffffffffffffffffffffffffffffffffffffffff1673ffffffffffffffffffffffffffffffffffffffff1681526020019081526020016000208381548110610775577f4e487b7100000000000000000000000000000000000000000000000000000000600052603260045260246000fd5b906000526020600020906004020160010154600560008282546107989190611654565b92505081905550600160003373ffffffffffffffffffffffffffffffffffffffff1673ffffffffffffffffffffffffffffffffffffffff1681526020019081526020016000208381548110610816577f4e487b7100000000000000000000000000000000000000000000000000000000600052603260045260246000fd5b906000526020600020906004020160008082016000905560018201600090556002820160009055600382016000905550507f390b1276974b9463e5d66ab10df69b6f3d7b930eb066a0e66df327edd2cc811c3360008054906101000a900473ffffffffffffffffffffffffffffffffffffffff168460405161089a93929190611448565b60405180910390a1505050565b60045481565b60035481565b60018214806108c25750600382145b806108cd5750600682145b806108d85750600c82145b806108e35750601882145b610922576040517f08c379a0000000000000000000000000000000000000000000000000000000008152600401610919906114ea565b60405180910390fd5b68056bc75e2d6310000081101561096e576040517f08c379a00000000000000000000000000000000000000000000000000000000081526004016109659061156a565b60405180910390fd5b60008060009054906101000a900473ffffffffffffffffffffffffffffffffffffffff1673ffffffffffffffffffffffffffffffffffffffff166370a08231306040518263ffffffff1660e01b81526004016109ca919061142d565b60206040518083038186803b1580156109e257600080fd5b505afa1580156109f6573d6000803e3d6000fd5b505050506040513d601f19601f82011682018060405250810190610a1a91906111db565b90506000610a288484610d1d565b90506000808314158015610a4857508160045484610a469190611735565b115b90506001151581151514610a91576040517f08c379a0000000000000000000000000000000000000000000000000000000008152600401610a889061152a565b60405180910390fd5b60008060009054906101000a900473ffffffffffffffffffffffffffffffffffffffff1673ffffffffffffffffffffffffffffffffffffffff166323b872dd3330886040518463ffffffff1660e01b8152600401610af193929190611448565b602060405180830381600087803b158015610b0b57600080fd5b505af1158015610b1f573d6000803e3d6000fd5b505050506040513d601f19601f82011682018060405250810190610b439190611189565b90506001151581151514610b8c576040517f08c379a0000000000000000000000000000000000000000000000000000000008152600401610b839061150a565b60405180910390fd5b600160003373ffffffffffffffffffffffffffffffffffffffff1673ffffffffffffffffffffffffffffffffffffffff1681526020019081526020016000206040518060800160405280878152602001858152602001622820a889610bf191906116db565b42610bfc9190611654565b81526020014281525090806001815401808255809150506001900390600052602060002090600402016000909190919091506000820151816000015560208201518160010155604082015181600201556060820151816003015550508460026000828254610c6a9190611654565b925050819055508260046000828254610c839190611654565b925050819055507f99039fcf0a98f484616c5196ee8b2ecfa971babf0b519848289ea4db381f85f73360008054906101000a900473ffffffffffffffffffffffffffffffffffffffff1687604051610cdd93929190611448565b60405180910390a1505050505050565b60025481565b60055481565b60008054906101000a900473ffffffffffffffffffffffffffffffffffffffff1681565b60006001831415610d62576000610d5783600660000160009054906101000a900467ffffffffffffffff1667ffffffffffffffff16610e79565b905080915050610e73565b6003831415610da5576000610d9a83600660000160089054906101000a900467ffffffffffffffff1667ffffffffffffffff16610e79565b905080915050610e73565b6006831415610de8576000610ddd83600660000160109054906101000a900467ffffffffffffffff1667ffffffffffffffff16610e79565b905080915050610e73565b600c831415610e2b576000610e2083600660000160189054906101000a900467ffffffffffffffff1667ffffffffffffffff16610e79565b905080915050610e73565b6018831415610e6e576000610e6383600660010160009054906101000a900467ffffffffffffffff1667ffffffffffffffff16610e79565b905080915050610e73565b600090505b92915050565b60008060008060009054906101000a900473ffffffffffffffffffffffffffffffffffffffff1673ffffffffffffffffffffffffffffffffffffffff166370a08231306040518263ffffffff1660e01b8152600401610ed8919061142d565b60206040518083038186803b158015610ef057600080fd5b505afa158015610f04573d6000803e3d6000fd5b505050506040513d601f19601f82011682018060405250810190610f2891906111db565b90506000670de0b6b3a7640000905080630bebc200610f4791906116db565b821115610f57576001925061108c565b80630bebc200610f6791906116db565b8211158015610f845750806305f5e100610f8191906116db565b82115b15610f92576002925061108b565b806305f5e100610fa291906116db565b8211158015610fbf5750806302faf080610fbc91906116db565b82115b15610fcd576004925061108a565b806302faf080610fdd91906116db565b8211158015610ffa57508063017d7840610ff791906116db565b82115b156110085760089250611089565b8063017d784061101891906116db565b821115801561103457508062bebc2061103191906116db565b82115b156110425760109250611088565b8062bebc2061105191906116db565b821115801561106d575080625f5e1061106a91906116db565b82115b1561107b5760209250611087565b600093505050506110ca565b5b5b5b5b5b6000838661109a91906116aa565b9050600081886110aa91906116db565b90506000633b9aca00826110be91906116aa565b90508096505050505050505b92915050565b6000813590506110df816119ec565b92915050565b6000815190506110f481611a03565b92915050565b60008135905061110981611a1a565b92915050565b60008151905061111e81611a1a565b92915050565b60006020828403121561113657600080fd5b6000611144848285016110d0565b91505092915050565b6000806040838503121561116057600080fd5b600061116e858286016110d0565b925050602061117f858286016110fa565b9150509250929050565b60006020828403121561119b57600080fd5b60006111a9848285016110e5565b91505092915050565b6000602082840312156111c457600080fd5b60006111d2848285016110fa565b91505092915050565b6000602082840312156111ed57600080fd5b60006111fb8482850161110f565b91505092915050565b6000806040838503121561121757600080fd5b6000611225858286016110fa565b9250506020611236858286016110fa565b9150509250929050565b600061124c83836113ba565b60808301905092915050565b61126181611769565b82525050565b60006112728261161a565b61127c8185611632565b93506112878361160a565b8060005b838110156112b857815161129f8882611240565b97506112aa83611625565b92505060018101905061128b565b5085935050505092915050565b60006112d2602a83611643565b91506112dd8261180f565b604082019050919050565b60006112f5601883611643565b91506113008261185e565b602082019050919050565b6000611318601683611643565b915061132382611887565b602082019050919050565b600061133b603083611643565b9150611346826118b0565b604082019050919050565b600061135e601983611643565b9150611369826118ff565b602082019050919050565b6000611381602b83611643565b915061138c82611928565b604082019050919050565b60006113a4604d83611643565b91506113af82611977565b606082019050919050565b6080820160008201516113d0600085018261140f565b5060208201516113e3602085018261140f565b5060408201516113f6604085018261140f565b506060820151611409606085018261140f565b50505050565b611418816117a7565b82525050565b611427816117a7565b82525050565b60006020820190506114426000830184611258565b92915050565b600060608201905061145d6000830186611258565b61146a6020830185611258565b611477604083018461141e565b949350505050565b60006040820190506114946000830185611258565b6114a1602083018461141e565b9392505050565b600060208201905081810360008301526114c28184611267565b905092915050565b600060208201905081810360008301526114e3816112c5565b9050919050565b60006020820190508181036000830152611503816112e8565b9050919050565b600060208201905081810360008301526115238161130b565b9050919050565b600060208201905081810360008301526115438161132e565b9050919050565b6000602082019050818103600083015261156381611351565b9050919050565b6000602082019050818103600083015261158381611374565b9050919050565b600060208201905081810360008301526115a381611397565b9050919050565b60006020820190506115bf600083018461141e565b92915050565b60006080820190506115da600083018761141e565b6115e7602083018661141e565b6115f4604083018561141e565b611601606083018461141e565b95945050505050565b6000819050602082019050919050565b600081519050919050565b6000602082019050919050565b600082825260208201905092915050565b600082825260208201905092915050565b600061165f826117a7565b915061166a836117a7565b9250827fffffffffffffffffffffffffffffffffffffffffffffffffffffffffffffffff0382111561169f5761169e6117b1565b5b828201905092915050565b60006116b5826117a7565b91506116c0836117a7565b9250826116d0576116cf6117e0565b5b828204905092915050565b60006116e6826117a7565b91506116f1836117a7565b9250817fffffffffffffffffffffffffffffffffffffffffffffffffffffffffffffffff048311821515161561172a576117296117b1565b5b828202905092915050565b6000611740826117a7565b915061174b836117a7565b92508282101561175e5761175d6117b1565b5b828203905092915050565b600061177482611787565b9050919050565b60008115159050919050565b600073ffffffffffffffffffffffffffffffffffffffff82169050919050565b6000819050919050565b7f4e487b7100000000000000000000000000000000000000000000000000000000600052601160045260246000fd5b7f4e487b7100000000000000000000000000000000000000000000000000000000600052601260045260246000fd5b7f556e7374616b653a2054686973206465706f73697420697320616c726561647960008201527f20756e7374616b65642e00000000000000000000000000000000000000000000602082015250565b7f5374616b696e673a20496e76616c69642074656e7572652e0000000000000000600082015250565b7f5374616b653a204465706f736974206661696c65642100000000000000000000600082015250565b7f5374616b653a20436f6e747261637420646f65736e277420686f6c642073756660008201527f66696369656e742062616c616e63652e00000000000000000000000000000000602082015250565b7f556e7361746b653a205769746864726177206661696c65642100000000000000600082015250565b7f5374616b653a206d696e696d756d206465706f7369742072657175697265642060008201527f697320313030204254542e000000000000000000000000000000000000000000602082015250565b7f556e7374616b653a20596f752063616e277420776974686472617720796f757260008201527f2066756e647320756e6c65737320746865207374616b696e6720706572696f6460208201527f206973206e6f74206f7665722e00000000000000000000000000000000000000604082015250565b6119f581611769565b8114611a0057600080fd5b50565b611a0c8161177b565b8114611a1757600080fd5b50565b611a23816117a7565b8114611a2e57600080fd5b5056fea264697066735822122005240c0837b2735ebaa99ecbb2955a5195ca45c995c0452e4ee89d701aab5b8a64736f6c63430008040033",
  "immutableReferences": {},
  "source": "// SPDX-License-Identifier: MIT\npragma solidity ^0.8.4;\nimport \"@openzeppelin/contracts/token/ERC20/IERC20.sol\";\n\ncontract Bytrade_Staking {\n\n    address public Token;\n    mapping(address => userDeposit[]) public userDeposits;\n    uint256 public totalStaked;\n    uint256 public totalSent;\n    uint256 public stakedInterest;\n    uint256 public interestSent;\n\n    // events for staking and unstaking\n    event Stake(address userAddress, address tokenAddress, uint256 amount);\n    event Unstake(address userAddress, address tokenAddress, uint256 amount);\n    \n    struct tenures {\n        uint64 one_month;\n        uint64 three_months;\n        uint64 six_months;\n        uint64 twelve_months;\n        uint64 twenty_four_months;\n    }\n\n    struct userDeposit {\n        uint256 amount;\n        uint256 interestAmount;\n        uint256 endTime;\n        uint256 depositTime;\n    }\n\n    /**\n    Interest rates \n    one_month = 1.5 %\n    three_months = 6 %\n    six_months = 15 %\n    twelve_months = 40 %\n    twenty_four_months = 120 %\n    */\n\n    // used 10000000 Basis Points for decimal calculation\n    tenures internal interestRate = tenures({one_month: 15000000, three_months: 60000000, six_months: 150000000, twelve_months: 400000000, twenty_four_months: 1200000000});\n\n    \n    constructor(address _tokenAddress){\n        Token = _tokenAddress;\n    }\n\n\n    /**\n    _tenure  = number of months contract will hold the staked amount\n    _amount = number of tokens user will stake\n    */\n\n    // staking BT token for getting interest\n    function stake(uint256 _tenure, uint256 _amount) payable external {\n        require(\n            _tenure == 1 || _tenure == 3  || _tenure == 6 || _tenure == 12 || _tenure == 24,\n            \"Staking: Invalid tenure.\"\n        );\n        require(\n            _amount >= 100 * 10**18,\n             \"Stake: minimum deposit required is 100 BTT.\"\n        );\n\n\n        uint256 contractBalance = IERC20(Token).balanceOf(address(this));\n\n        // calculating the interest \n        uint256 _interestAmount =  getInterest(_tenure, _amount);\n\n        // contract should hold enough balance to payback the interest against staked amount\n        bool available = (contractBalance != 0 && contractBalance - stakedInterest > _interestAmount);\n        require(available == true, \"Stake: Contract doesn't hold sufficient balance.\");\n\n        // transfering token from \"user account\" to \"staking contract\"\n        bool success = IERC20(Token).transferFrom(msg.sender, address(this), _amount);\n        require(success == true, \"Stake: Deposit failed!\");\n\n\n        //storing user's deposit details\n        userDeposits[msg.sender].push(\n            userDeposit({\n                amount: _amount,\n                interestAmount: _interestAmount,\n                endTime: block.timestamp + _tenure * 2629800, // each month have 2629800 seconds, we are multiplying the seconds with number of months\n                depositTime: block.timestamp\n            })\n        );\n\n        totalStaked += _amount;    \n        stakedInterest += _interestAmount;\n        emit Stake(msg.sender, Token, _amount);\n    }\n\n   \n\n    // unstaking token with interest\n    function unstake(uint256 _index) public {\n        require(\n            userDeposits[msg.sender][_index].amount > 0,\n            \"Unstake: This deposit is already unstaked.\"\n        ); \n\n        require(\n            userDeposits[msg.sender][_index].endTime < block.timestamp,\n            \"Unstake: You can't withdraw your funds unless the staking period is not over.\"\n        );\n\n        uint256 _withdrawAmount = userDeposits[msg.sender][_index].amount + userDeposits[msg.sender][_index].interestAmount;\n        // returning deposit with interest\n        bool success = IERC20(Token).transfer(msg.sender, _withdrawAmount);\n        require(success == true, \"Unsatke: Withdraw failed!\");\n        \n        totalSent += _withdrawAmount;\n        interestSent += userDeposits[msg.sender][_index].interestAmount;\n        delete userDeposits[msg.sender][_index];\n\n        emit Unstake(msg.sender, Token, _withdrawAmount);\n    }\n\n\n    // getting the list of user's deposits\n    function getUserDeposits(address userAddress)\n        external\n        view\n        returns (userDeposit[] memory)\n    {\n        return userDeposits[userAddress];\n    }\n\n     /**\n    _tenure  = number of months contract will hold the staked amount\n    _amount = number of tokens user will stake\n    */\n\n      // calculating the interest amount\n    function getInterest(uint256 _tenure, uint256 _amount)\n        internal\n        view\n        returns (uint256)\n    {\n        if (_tenure == 1){\n           uint256 finalAmount =  getYieldMultiplier (_amount, interestRate.one_month);\n           return finalAmount;\n        } else if (_tenure == 3){\n            uint256 finalAmount =  getYieldMultiplier (_amount, interestRate.three_months);\n           return finalAmount;\n        } else if (_tenure == 6){\n            uint256 finalAmount =  getYieldMultiplier (_amount, interestRate.six_months);\n           return finalAmount;\n        }else if (_tenure == 12){\n            uint256 finalAmount =  getYieldMultiplier (_amount, interestRate.twelve_months);\n           return finalAmount;\n        }else if (_tenure == 24){\n            uint256 finalAmount =  getYieldMultiplier (_amount, interestRate.twenty_four_months);\n           return finalAmount;\n        } else return 0;\n        \n    }\n\n\n     // Calculating interest based on contract halving\n    function getYieldMultiplier(uint256 _amount, uint256 _percent)\n        internal\n        view\n        returns (uint256)\n    {\n        uint256 _halving;\n        uint256 contractBalance = IERC20(Token).balanceOf(address(this));\n        uint256 decimals = 10 **18;\n\n        if (contractBalance > 200_000_000 * decimals){\n            _halving = 1;\n        } else if (contractBalance <= 200_000_000 * decimals && contractBalance > 100_000_000 * decimals){\n            _halving = 2;\n        } else if (contractBalance <= 100_000_000 * decimals && contractBalance > 50_000_000 * decimals){\n            _halving = 4;\n        } else if (contractBalance <= 50_000_000 * decimals && contractBalance > 25_000_000 * decimals){\n            _halving = 8;\n        } else if (contractBalance <= 25_000_000 * decimals && contractBalance > 12_500_000 * decimals){\n            _halving = 16;\n        } else if (contractBalance <= 12_500_000 * decimals && contractBalance > 6_250_000 * decimals){\n            _halving = 32;\n        } else {\n            return 0;\n        }\n\n        uint256 percentage = _percent / _halving;\n        uint256 temp = _amount * percentage;\n        uint256 finalAmont = temp/ 100_0000000; // removing 10000000 Basis Points\n        return finalAmont;\n    }\n\n\n}",
  "sourcePath": "C:\\Users\\Lenovo\\Desktop\\Bytrade Staking\\contracts\\Bytrade_Staking.sol",
  "compiler": {
    "name": "solc",
    "version": "0.8.4+commit.c7e474f2.Emscripten.clang"
  },
  "schemaVersion": "3.4.11",
  "updatedAt": "2023-02-17T07:52:09.442Z",
  "networkType": "ethereum",
  "devdoc": {
    "kind": "dev",
    "methods": {},
    "version": 1
  },
  "userdoc": {
    "kind": "user",
    "methods": {
      "stake(uint256,uint256)": {
        "notice": "_tenure  = number of months contract will hold the staked amount _amount = number of tokens user will stake"
      }
    },
    "version": 1
  }
}