{
  "contractName": "Bytrade_Staking",
  "abi": [
    {
      "inputs": [
        {
          "internalType": "address",
          "name": "_tokenAddress",
          "type": "address"
        }
      ],
      "stateMutability": "nonpayable",
      "type": "constructor"
    },
    {
      "anonymous": false,
      "inputs": [
        {
          "indexed": false,
          "internalType": "address",
          "name": "userAddress",
          "type": "address"
        },
        {
          "indexed": false,
          "internalType": "address",
          "name": "tokenAddress",
          "type": "address"
        },
        {
          "indexed": false,
          "internalType": "uint256",
          "name": "amount",
          "type": "uint256"
        }
      ],
      "name": "Stake",
      "type": "event"
    },
    {
      "anonymous": false,
      "inputs": [
        {
          "indexed": false,
          "internalType": "address",
          "name": "userAddress",
          "type": "address"
        },
        {
          "indexed": false,
          "internalType": "address",
          "name": "tokenAddress",
          "type": "address"
        },
        {
          "indexed": false,
          "internalType": "uint256",
          "name": "amount",
          "type": "uint256"
        }
      ],
      "name": "Unstake",
      "type": "event"
    },
    {
      "inputs": [],
      "name": "Token",
      "outputs": [
        {
          "internalType": "address",
          "name": "",
          "type": "address"
        }
      ],
      "stateMutability": "view",
      "type": "function",
      "constant": true
    },
    {
      "inputs": [],
      "name": "amountStaked",
      "outputs": [
        {
          "internalType": "uint256",
          "name": "",
          "type": "uint256"
        }
      ],
      "stateMutability": "view",
      "type": "function",
      "constant": true
    },
    {
      "inputs": [],
      "name": "month",
      "outputs": [
        {
          "internalType": "uint256",
          "name": "",
          "type": "uint256"
        }
      ],
      "stateMutability": "view",
      "type": "function",
      "constant": true
    },
    {
      "inputs": [],
      "name": "stakedAmountInterest",
      "outputs": [
        {
          "internalType": "uint256",
          "name": "",
          "type": "uint256"
        }
      ],
      "stateMutability": "view",
      "type": "function",
      "constant": true
    },
    {
      "inputs": [
        {
          "internalType": "address",
          "name": "",
          "type": "address"
        },
        {
          "internalType": "uint256",
          "name": "",
          "type": "uint256"
        }
      ],
      "name": "userDeposits",
      "outputs": [
        {
          "internalType": "uint256",
          "name": "amount",
          "type": "uint256"
        },
        {
          "internalType": "uint256",
          "name": "interestAmount",
          "type": "uint256"
        },
        {
          "internalType": "uint256",
          "name": "endTime",
          "type": "uint256"
        },
        {
          "internalType": "uint256",
          "name": "depositTime",
          "type": "uint256"
        }
      ],
      "stateMutability": "view",
      "type": "function",
      "constant": true
    },
    {
      "inputs": [
        {
          "internalType": "uint256",
          "name": "_tenure",
          "type": "uint256"
        },
        {
          "internalType": "uint256",
          "name": "_amount",
          "type": "uint256"
        }
      ],
      "name": "stake",
      "outputs": [],
      "stateMutability": "nonpayable",
      "type": "function"
    },
    {
      "inputs": [
        {
          "internalType": "uint256",
          "name": "_index",
          "type": "uint256"
        }
      ],
      "name": "unstake",
      "outputs": [],
      "stateMutability": "nonpayable",
      "type": "function"
    },
    {
      "inputs": [
        {
          "internalType": "address",
          "name": "userAddress",
          "type": "address"
        },
        {
          "internalType": "uint256",
          "name": "start",
          "type": "uint256"
        },
        {
          "internalType": "uint256",
          "name": "limit",
          "type": "uint256"
        }
      ],
      "name": "getUserDeposits",
      "outputs": [
        {
          "components": [
            {
              "internalType": "uint256",
              "name": "amount",
              "type": "uint256"
            },
            {
              "internalType": "uint256",
              "name": "interestAmount",
              "type": "uint256"
            },
            {
              "internalType": "uint256",
              "name": "endTime",
              "type": "uint256"
            },
            {
              "internalType": "uint256",
              "name": "depositTime",
              "type": "uint256"
            }
          ],
          "internalType": "struct Bytrade_Staking.userDeposit[]",
          "name": "",
          "type": "tuple[]"
        },
        {
          "internalType": "uint256",
          "name": "total",
          "type": "uint256"
        }
      ],
      "stateMutability": "view",
      "type": "function",
      "constant": true
    }
  ],
  "bytecode": "0x6080604052622820a86004556040518060a0016040528062e4e1c067ffffffffffffffff168152602001630393870067ffffffffffffffff1681526020016308f0d18067ffffffffffffffff1681526020016317d7840067ffffffffffffffff1681526020016347868c0067ffffffffffffffff16815250600560008201518160000160006101000a81548167ffffffffffffffff021916908367ffffffffffffffff16021790555060208201518160000160086101000a81548167ffffffffffffffff021916908367ffffffffffffffff16021790555060408201518160000160106101000a81548167ffffffffffffffff021916908367ffffffffffffffff16021790555060608201518160000160186101000a81548167ffffffffffffffff021916908367ffffffffffffffff16021790555060808201518160010160006101000a81548167ffffffffffffffff021916908367ffffffffffffffff16021790555050503480156200017357600080fd5b506040516200209a3803806200209a8339818101604052810190620001999190620001f7565b806000806101000a81548173ffffffffffffffffffffffffffffffffffffffff021916908373ffffffffffffffffffffffffffffffffffffffff1602179055505062000271565b600081519050620001f18162000257565b92915050565b6000602082840312156200020a57600080fd5b60006200021a84828501620001e0565b91505092915050565b6000620002308262000237565b9050919050565b600073ffffffffffffffffffffffffffffffffffffffff82169050919050565b620002628162000223565b81146200026e57600080fd5b50565b611e1980620002816000396000f3fe608060405234801561001057600080fd5b50600436106100885760003560e01c80637b0472f01161005b5780637b0472f01461012b578063bcd8c70414610147578063c241267614610165578063fab1e7471461018357610088565b806308f433331461008d5780632e17de78146100c05780634698b883146100dc578063702921f51461010d575b600080fd5b6100a760048036038101906100a291906113ed565b6101a1565b6040516100b79493929190611905565b60405180910390f35b6100da60048036038101906100d591906114a1565b6101ee565b005b6100f660048036038101906100f19190611429565b6107df565b6040516101049291906117ba565b60405180910390f35b610115610b33565b60405161012291906118ea565b60405180910390f35b610145600480360381019061014091906114f3565b610b39565b005b61014f610f71565b60405161015c91906118ea565b60405180910390f35b61016d610f77565b60405161017a919061173f565b60405180910390f35b61018b610f9b565b60405161019891906118ea565b60405180910390f35b600160205281600052604060002081815481106101bd57600080fd5b9060005260206000209060040201600091509150508060000154908060010154908060020154908060030154905084565b6000600160003373ffffffffffffffffffffffffffffffffffffffff1673ffffffffffffffffffffffffffffffffffffffff1681526020019081526020016000208281548110610267577f4e487b7100000000000000000000000000000000000000000000000000000000600052603260045260246000fd5b906000526020600020906004020160000154116102b9576040517f08c379a00000000000000000000000000000000000000000000000000000000081526004016102b09061180a565b60405180910390fd5b42600160003373ffffffffffffffffffffffffffffffffffffffff1673ffffffffffffffffffffffffffffffffffffffff1681526020019081526020016000208281548110610331577f4e487b7100000000000000000000000000000000000000000000000000000000600052603260045260246000fd5b90600052602060002090600402016002015410610383576040517f08c379a000000000000000000000000000000000000000000000000000000000815260040161037a906118ca565b60405180910390fd5b6000600160003373ffffffffffffffffffffffffffffffffffffffff1673ffffffffffffffffffffffffffffffffffffffff16815260200190815260200160002082815481106103fc577f4e487b7100000000000000000000000000000000000000000000000000000000600052603260045260246000fd5b906000526020600020906004020160010154600160003373ffffffffffffffffffffffffffffffffffffffff1673ffffffffffffffffffffffffffffffffffffffff1681526020019081526020016000208381548110610485577f4e487b7100000000000000000000000000000000000000000000000000000000600052603260045260246000fd5b9060005260206000209060040201600001546104a19190611994565b905060008060009054906101000a900473ffffffffffffffffffffffffffffffffffffffff1673ffffffffffffffffffffffffffffffffffffffff1663a9059cbb33846040518363ffffffff1660e01b8152600401610501929190611791565b602060405180830381600087803b15801561051b57600080fd5b505af115801561052f573d6000803e3d6000fd5b505050506040513d601f19601f820116820180604052508101906105539190611478565b905080610595576040517f08c379a000000000000000000000000000000000000000000000000000000000815260040161058c9061188a565b60405180910390fd5b600160003373ffffffffffffffffffffffffffffffffffffffff1673ffffffffffffffffffffffffffffffffffffffff168152602001908152602001600020838154811061060c577f4e487b7100000000000000000000000000000000000000000000000000000000600052603260045260246000fd5b9060005260206000209060040201600001546002600082825461062f9190611a75565b92505081905550600160003373ffffffffffffffffffffffffffffffffffffffff1673ffffffffffffffffffffffffffffffffffffffff16815260200190815260200160002083815481106106ad577f4e487b7100000000000000000000000000000000000000000000000000000000600052603260045260246000fd5b906000526020600020906004020160010154600360008282546106d09190611a75565b92505081905550600160003373ffffffffffffffffffffffffffffffffffffffff1673ffffffffffffffffffffffffffffffffffffffff168152602001908152602001600020838154811061074e577f4e487b7100000000000000000000000000000000000000000000000000000000600052603260045260246000fd5b906000526020600020906004020160008082016000905560018201600090556002820160009055600382016000905550507f390b1276974b9463e5d66ab10df69b6f3d7b930eb066a0e66df327edd2cc811c3360008054906101000a900473ffffffffffffffffffffffffffffffffffffffff16846040516107d29392919061175a565b60405180910390a1505050565b606060008084101580156107f35750600083115b610832576040517f08c379a0000000000000000000000000000000000000000000000000000000008152600401610829906117ea565b60405180910390fd5b6000600160008773ffffffffffffffffffffffffffffffffffffffff1673ffffffffffffffffffffffffffffffffffffffff168152602001908152602001600020905060008180549050905080861061094e57600067ffffffffffffffff8111156108c6577f4e487b7100000000000000000000000000000000000000000000000000000000600052604160045260246000fd5b6040519080825280602002602001820160405280156108ff57816020015b6108ec611371565b8152602001906001900390816108e45790505b50600160008973ffffffffffffffffffffffffffffffffffffffff1673ffffffffffffffffffffffffffffffffffffffff16815260200190815260200160002080549050935093505050610b2b565b6000858761095c9190611994565b90508181111561096a578190505b600087826109789190611a75565b67ffffffffffffffff8111156109b7577f4e487b7100000000000000000000000000000000000000000000000000000000600052604160045260246000fd5b6040519080825280602002602001820160405280156109f057816020015b6109dd611371565b8152602001906001900390816109d55790505b50905060008890505b82811015610add57848181548110610a3a577f4e487b7100000000000000000000000000000000000000000000000000000000600052603260045260246000fd5b9060005260206000209060040201604051806080016040529081600082015481526020016001820154815260200160028201548152602001600382015481525050828a83610a889190611a75565b81518110610abf577f4e487b7100000000000000000000000000000000000000000000000000000000600052603260045260246000fd5b60200260200101819052508080610ad590611af1565b9150506109f9565b5080600160008b73ffffffffffffffffffffffffffffffffffffffff1673ffffffffffffffffffffffffffffffffffffffff1681526020019081526020016000208054905095509550505050505b935093915050565b60045481565b6001821480610b485750600382145b80610b535750600682145b80610b5e5750600c82145b80610b695750601882145b610ba8576040517f08c379a0000000000000000000000000000000000000000000000000000000008152600401610b9f9061182a565b60405180910390fd5b68056bc75e2d63100000811015610bf4576040517f08c379a0000000000000000000000000000000000000000000000000000000008152600401610beb906118aa565b60405180910390fd5b60008060009054906101000a900473ffffffffffffffffffffffffffffffffffffffff1673ffffffffffffffffffffffffffffffffffffffff166370a08231306040518263ffffffff1660e01b8152600401610c50919061173f565b60206040518083038186803b158015610c6857600080fd5b505afa158015610c7c573d6000803e3d6000fd5b505050506040513d601f19601f82011682018060405250810190610ca091906114ca565b90506000610cae8484610fa1565b90506000808314158015610cdb575081600354600254610cce9190611994565b84610cd99190611a75565b115b905080610d1d576040517f08c379a0000000000000000000000000000000000000000000000000000000008152600401610d149061186a565b60405180910390fd5b60008060009054906101000a900473ffffffffffffffffffffffffffffffffffffffff1673ffffffffffffffffffffffffffffffffffffffff166323b872dd3330886040518463ffffffff1660e01b8152600401610d7d9392919061175a565b602060405180830381600087803b158015610d9757600080fd5b505af1158015610dab573d6000803e3d6000fd5b505050506040513d601f19601f82011682018060405250810190610dcf9190611478565b905080610e11576040517f08c379a0000000000000000000000000000000000000000000000000000000008152600401610e089061184a565b60405180910390fd5b600160003373ffffffffffffffffffffffffffffffffffffffff1673ffffffffffffffffffffffffffffffffffffffff168152602001908152602001600020604051806080016040528087815260200185815260200160045489610e759190611a1b565b42610e809190611994565b81526020014281525090806001815401808255809150506001900390600052602060002090600402016000909190919091506000820151816000015560208201518160010155604082015181600201556060820151816003015550508460026000828254610eee9190611994565b925050819055508260036000828254610f079190611994565b925050819055507f99039fcf0a98f484616c5196ee8b2ecfa971babf0b519848289ea4db381f85f73360008054906101000a900473ffffffffffffffffffffffffffffffffffffffff1687604051610f619392919061175a565b60405180910390a1505050505050565b60035481565b60008054906101000a900473ffffffffffffffffffffffffffffffffffffffff1681565b60025481565b60006001831415610fe6576000610fdb83600560000160009054906101000a900467ffffffffffffffff1667ffffffffffffffff166110fd565b9050809150506110f7565b600383141561102957600061101e83600560000160089054906101000a900467ffffffffffffffff1667ffffffffffffffff166110fd565b9050809150506110f7565b600683141561106c57600061106183600560000160109054906101000a900467ffffffffffffffff1667ffffffffffffffff166110fd565b9050809150506110f7565b600c8314156110af5760006110a483600560000160189054906101000a900467ffffffffffffffff1667ffffffffffffffff166110fd565b9050809150506110f7565b60188314156110f25760006110e783600560010160009054906101000a900467ffffffffffffffff1667ffffffffffffffff166110fd565b9050809150506110f7565b600090505b92915050565b6000806000670de0b6b3a7640000905060008060009054906101000a900473ffffffffffffffffffffffffffffffffffffffff1673ffffffffffffffffffffffffffffffffffffffff166370a08231306040518263ffffffff1660e01b8152600401611169919061173f565b60206040518083038186803b15801561118157600080fd5b505afa158015611195573d6000803e3d6000fd5b505050506040513d601f19601f820116820180604052508101906111b991906114ca565b90506003546002546111cb9190611994565b816111d69190611a75565b905081630bebc2006111e89190611a1b565b8111156111f8576001925061132d565b81630bebc2006112089190611a1b565b81111580156112255750816305f5e1006112229190611a1b565b81115b15611233576002925061132c565b816305f5e1006112439190611a1b565b81111580156112605750816302faf08061125d9190611a1b565b81115b1561126e576004925061132b565b816302faf08061127e9190611a1b565b811115801561129b57508163017d78406112989190611a1b565b81115b156112a9576008925061132a565b8163017d78406112b99190611a1b565b81111580156112d557508162bebc206112d29190611a1b565b81115b156112e35760109250611329565b8162bebc206112f29190611a1b565b811115801561130e575081625f5e1061130b9190611a1b565b81115b1561131c5760209250611328565b6000935050505061136b565b5b5b5b5b5b6000838661133b91906119ea565b90506000818861134b9190611a1b565b90506000633b9aca008261135f91906119ea565b90508096505050505050505b92915050565b6040518060800160405280600081526020016000815260200160008152602001600081525090565b6000813590506113a881611d9e565b92915050565b6000815190506113bd81611db5565b92915050565b6000813590506113d281611dcc565b92915050565b6000815190506113e781611dcc565b92915050565b6000806040838503121561140057600080fd5b600061140e85828601611399565b925050602061141f858286016113c3565b9150509250929050565b60008060006060848603121561143e57600080fd5b600061144c86828701611399565b935050602061145d868287016113c3565b925050604061146e868287016113c3565b9150509250925092565b60006020828403121561148a57600080fd5b6000611498848285016113ae565b91505092915050565b6000602082840312156114b357600080fd5b60006114c1848285016113c3565b91505092915050565b6000602082840312156114dc57600080fd5b60006114ea848285016113d8565b91505092915050565b6000806040838503121561150657600080fd5b6000611514858286016113c3565b9250506020611525858286016113c3565b9150509250929050565b600061153b83836116cc565b60808301905092915050565b61155081611aa9565b82525050565b60006115618261195a565b61156b8185611972565b93506115768361194a565b8060005b838110156115a757815161158e888261152f565b975061159983611965565b92505060018101905061157a565b5085935050505092915050565b60006115c1601d83611983565b91506115cc82611b98565b602082019050919050565b60006115e4602a83611983565b91506115ef82611bc1565b604082019050919050565b6000611607601883611983565b915061161282611c10565b602082019050919050565b600061162a601683611983565b915061163582611c39565b602082019050919050565b600061164d603083611983565b915061165882611c62565b604082019050919050565b6000611670601983611983565b915061167b82611cb1565b602082019050919050565b6000611693602b83611983565b915061169e82611cda565b604082019050919050565b60006116b6604d83611983565b91506116c182611d29565b606082019050919050565b6080820160008201516116e26000850182611721565b5060208201516116f56020850182611721565b5060408201516117086040850182611721565b50606082015161171b6060850182611721565b50505050565b61172a81611ae7565b82525050565b61173981611ae7565b82525050565b60006020820190506117546000830184611547565b92915050565b600060608201905061176f6000830186611547565b61177c6020830185611547565b6117896040830184611730565b949350505050565b60006040820190506117a66000830185611547565b6117b36020830184611730565b9392505050565b600060408201905081810360008301526117d48185611556565b90506117e36020830184611730565b9392505050565b60006020820190508181036000830152611803816115b4565b9050919050565b60006020820190508181036000830152611823816115d7565b9050919050565b60006020820190508181036000830152611843816115fa565b9050919050565b600060208201905081810360008301526118638161161d565b9050919050565b6000602082019050818103600083015261188381611640565b9050919050565b600060208201905081810360008301526118a381611663565b9050919050565b600060208201905081810360008301526118c381611686565b9050919050565b600060208201905081810360008301526118e3816116a9565b9050919050565b60006020820190506118ff6000830184611730565b92915050565b600060808201905061191a6000830187611730565b6119276020830186611730565b6119346040830185611730565b6119416060830184611730565b95945050505050565b6000819050602082019050919050565b600081519050919050565b6000602082019050919050565b600082825260208201905092915050565b600082825260208201905092915050565b600061199f82611ae7565b91506119aa83611ae7565b9250827fffffffffffffffffffffffffffffffffffffffffffffffffffffffffffffffff038211156119df576119de611b3a565b5b828201905092915050565b60006119f582611ae7565b9150611a0083611ae7565b925082611a1057611a0f611b69565b5b828204905092915050565b6000611a2682611ae7565b9150611a3183611ae7565b9250817fffffffffffffffffffffffffffffffffffffffffffffffffffffffffffffffff0483118215151615611a6a57611a69611b3a565b5b828202905092915050565b6000611a8082611ae7565b9150611a8b83611ae7565b925082821015611a9e57611a9d611b3a565b5b828203905092915050565b6000611ab482611ac7565b9050919050565b60008115159050919050565b600073ffffffffffffffffffffffffffffffffffffffff82169050919050565b6000819050919050565b6000611afc82611ae7565b91507fffffffffffffffffffffffffffffffffffffffffffffffffffffffffffffffff821415611b2f57611b2e611b3a565b5b600182019050919050565b7f4e487b7100000000000000000000000000000000000000000000000000000000600052601160045260246000fd5b7f4e487b7100000000000000000000000000000000000000000000000000000000600052601260045260246000fd5b7f496e76616c696420706167696e6174696f6e20706172616d6574657273000000600082015250565b7f556e7374616b653a2054686973206465706f73697420697320616c726561647960008201527f20756e7374616b65642e00000000000000000000000000000000000000000000602082015250565b7f5374616b696e673a20496e76616c69642074656e7572652e0000000000000000600082015250565b7f5374616b653a204465706f736974206661696c65642100000000000000000000600082015250565b7f5374616b653a20436f6e747261637420646f65736e277420686f6c642073756660008201527f66696369656e742062616c616e63652e00000000000000000000000000000000602082015250565b7f556e7361746b653a205769746864726177206661696c65642100000000000000600082015250565b7f5374616b653a206d696e696d756d206465706f7369742072657175697265642060008201527f697320313030204254542e000000000000000000000000000000000000000000602082015250565b7f556e7374616b653a20596f752063616e277420776974686472617720796f757260008201527f2066756e647320756e6c65737320746865207374616b696e6720706572696f6460208201527f206973206e6f74206f7665722e00000000000000000000000000000000000000604082015250565b611da781611aa9565b8114611db257600080fd5b50565b611dbe81611abb565b8114611dc957600080fd5b50565b611dd581611ae7565b8114611de057600080fd5b5056fea2646970667358221220a839514284571bee7774833260bd92794ae38cc086e68fc01bb6794839f2d8f964736f6c63430008040033",
  "immutableReferences": {},
  "source": "// SPDX-License-Identifier: MIT\r\npragma solidity ^0.8.4;\r\nimport \"@openzeppelin/contracts/token/ERC20/IERC20.sol\";\r\n\r\ncontract Bytrade_Staking {\r\n\r\n    address public Token;\r\n    mapping(address => userDeposit[]) public userDeposits;\r\n    uint256 public amountStaked; // current amount contract hold\r\n    uint256 public stakedAmountInterest; // interest against current amount contract hold\r\n    uint256 public month = 2629800;  // number of seconds in a month\r\n\r\n    // events for staking and unstaking\r\n    event Stake(address userAddress, address tokenAddress, uint256 amount);\r\n    event Unstake(address userAddress, address tokenAddress, uint256 amount);\r\n    \r\n    struct tenures {\r\n        uint64 one_month;\r\n        uint64 three_months;\r\n        uint64 six_months;\r\n        uint64 twelve_months;\r\n        uint64 twenty_four_months;\r\n    }\r\n\r\n    struct userDeposit {\r\n        uint256 amount;\r\n        uint256 interestAmount;\r\n        uint256 endTime;\r\n        uint256 depositTime;\r\n    }\r\n\r\n    /**\r\n    Interest rates \r\n    one_month = 1.5 %\r\n    three_months = 6 %\r\n    six_months = 15 %\r\n    twelve_months = 40 %\r\n    twenty_four_months = 120 %\r\n    */\r\n\r\n    // used 10000000 Basis Points for decimal calculation\r\n    tenures internal interestRate = tenures({one_month: 15000000, three_months: 60000000, six_months: 150000000, twelve_months: 400000000, twenty_four_months: 1200000000});\r\n\r\n    //ERC20 token address \r\n    constructor(address _tokenAddress){\r\n        Token = _tokenAddress;\r\n    }\r\n\r\n\r\n    /**\r\n    _tenure  = number of months contract will hold the staked amount\r\n    _amount = number of tokens user will stake\r\n    */\r\n\r\n    // staking BT token for getting interest\r\n    function stake(uint256 _tenure, uint256 _amount) external {\r\n        require(\r\n            _tenure == 1 || _tenure == 3  || _tenure == 6 || _tenure == 12 || _tenure == 24,\r\n            \"Staking: Invalid tenure.\"\r\n        );\r\n        require(\r\n            _amount >= 100 * 10**18,\r\n             \"Stake: minimum deposit required is 100 BTT.\"\r\n        );\r\n\r\n\r\n        uint256 contractBalance = IERC20(Token).balanceOf(address(this));\r\n\r\n        // calculating the interest \r\n        uint256 _interestAmount =  getInterest(_tenure, _amount);\r\n\r\n        // contract should hold enough balance to payback the interest against staked amount\r\n        bool available = (contractBalance != 0 && contractBalance - (amountStaked + stakedAmountInterest) > _interestAmount);\r\n        require(available, \"Stake: Contract doesn't hold sufficient balance.\");\r\n\r\n        // transfering token from \"user account\" to \"staking contract\"\r\n        bool success = IERC20(Token).transferFrom(msg.sender, address(this), _amount);\r\n        require(success, \"Stake: Deposit failed!\");\r\n\r\n\r\n        //storing user's deposit details\r\n        userDeposits[msg.sender].push(\r\n            userDeposit({\r\n                amount: _amount,\r\n                interestAmount: _interestAmount,\r\n                endTime: block.timestamp + _tenure * month, // each month have 2629800 seconds, we are multiplying the seconds with number of months\r\n                depositTime: block.timestamp\r\n            })\r\n        );\r\n\r\n        amountStaked += _amount;    \r\n        stakedAmountInterest += _interestAmount;\r\n        emit Stake(msg.sender, Token, _amount);\r\n    }\r\n\r\n   \r\n\r\n    // unstaking token with interest\r\n    function unstake(uint256 _index) public {\r\n        require(\r\n            userDeposits[msg.sender][_index].amount > 0,\r\n            \"Unstake: This deposit is already unstaked.\"\r\n        ); \r\n\r\n        require(\r\n            userDeposits[msg.sender][_index].endTime < block.timestamp,\r\n            \"Unstake: You can't withdraw your funds unless the staking period is not over.\"\r\n        );\r\n\r\n        uint256 _withdrawAmount = userDeposits[msg.sender][_index].amount + userDeposits[msg.sender][_index].interestAmount;\r\n        // returning deposit with interest\r\n        bool success = IERC20(Token).transfer(msg.sender, _withdrawAmount);\r\n        require(success, \"Unsatke: Withdraw failed!\");\r\n        \r\n        amountStaked -= userDeposits[msg.sender][_index].amount;\r\n        stakedAmountInterest -= userDeposits[msg.sender][_index].interestAmount;\r\n        delete userDeposits[msg.sender][_index];\r\n\r\n        emit Unstake(msg.sender, Token, _withdrawAmount);\r\n    }\r\n\r\n\r\n    // getting the list of user's deposits \r\n    function getUserDeposits(address userAddress, uint256 start, uint256 limit) external view returns (userDeposit[] memory, uint256 total) {\r\n        require(start >= 0 && limit > 0, \"Invalid pagination parameters\");\r\n\r\n        userDeposit[] storage deposits = userDeposits[userAddress];\r\n        uint256 numDeposits = deposits.length;\r\n\r\n        if (start >= numDeposits) {\r\n            return (new userDeposit[](0), userDeposits[userAddress].length);\r\n        }\r\n\r\n        uint256 end = start + limit;\r\n        if (end > numDeposits) {\r\n            end = numDeposits;\r\n        }\r\n\r\n        userDeposit[] memory result = new userDeposit[](end - start);\r\n\r\n        for (uint256 i = start; i < end; i++) {\r\n            result[i - start] = deposits[i];\r\n        }\r\n\r\n        return (result, userDeposits[userAddress].length);\r\n    }\r\n\r\n     /**\r\n    _tenure  = number of months contract will hold the staked amount\r\n    _amount = number of tokens user will stake\r\n    */\r\n\r\n      // calculating the interest amount\r\n    function getInterest(uint256 _tenure, uint256 _amount)\r\n        internal\r\n        view\r\n        returns (uint256)\r\n    {\r\n        if (_tenure == 1){\r\n           uint256 finalAmount =  getYieldMultiplier (_amount, interestRate.one_month);\r\n           return finalAmount;\r\n        } else if (_tenure == 3){\r\n            uint256 finalAmount =  getYieldMultiplier (_amount, interestRate.three_months);\r\n           return finalAmount;\r\n        } else if (_tenure == 6){\r\n            uint256 finalAmount =  getYieldMultiplier (_amount, interestRate.six_months);\r\n           return finalAmount;\r\n        }else if (_tenure == 12){\r\n            uint256 finalAmount =  getYieldMultiplier (_amount, interestRate.twelve_months);\r\n           return finalAmount;\r\n        }else if (_tenure == 24){\r\n            uint256 finalAmount =  getYieldMultiplier (_amount, interestRate.twenty_four_months);\r\n           return finalAmount;\r\n        } else return 0;\r\n        \r\n    }\r\n\r\n\r\n     // Calculating interest based on contract halving\r\n    function getYieldMultiplier(uint256 _amount, uint256 _percent)\r\n        internal\r\n        view\r\n        returns (uint256)\r\n    {\r\n        uint256 _halving;\r\n        uint256 decimals = 10 **18;\r\n        /**\r\n        \r\n         */\r\n        uint256 contractBalance = IERC20(Token).balanceOf(address(this));\r\n        contractBalance = contractBalance - (amountStaked + stakedAmountInterest);\r\n\r\n        if (contractBalance > 200_000_000 * decimals){\r\n            _halving = 1;\r\n        } else if (contractBalance <= 200_000_000 * decimals && contractBalance > 100_000_000 * decimals){\r\n            _halving = 2;\r\n        } else if (contractBalance <= 100_000_000 * decimals && contractBalance > 50_000_000 * decimals){\r\n            _halving = 4;\r\n        } else if (contractBalance <= 50_000_000 * decimals && contractBalance > 25_000_000 * decimals){\r\n            _halving = 8;\r\n        } else if (contractBalance <= 25_000_000 * decimals && contractBalance > 12_500_000 * decimals){\r\n            _halving = 16;\r\n        } else if (contractBalance <= 12_500_000 * decimals && contractBalance > 6_250_000 * decimals){\r\n            _halving = 32;\r\n        } else {\r\n            return 0;\r\n        }\r\n\r\n        uint256 percentage = _percent / _halving;\r\n        uint256 temp = _amount * percentage;\r\n        uint256 finalAmont = temp/ 100_0000000; // removing 10000000 Basis Points\r\n        return finalAmont;\r\n    }\r\n\r\n\r\n}\r\n",
  "sourcePath": "C:\\Users\\Lenovo\\Desktop\\Bytrade-Staking\\contracts\\Bytrade_Staking.sol",
  "compiler": {
    "name": "solc",
    "version": "0.8.4+commit.c7e474f2.Emscripten.clang"
  },
  "schemaVersion": "3.4.11",
  "updatedAt": "2023-02-28T14:04:54.539Z",
  "networkType": "ethereum",
  "devdoc": {
    "kind": "dev",
    "methods": {},
    "version": 1
  },
  "userdoc": {
    "kind": "user",
    "methods": {
      "stake(uint256,uint256)": {
        "notice": "_tenure  = number of months contract will hold the staked amount _amount = number of tokens user will stake"
      }
    },
    "version": 1
  }
}